:020000040800F2
:10000000A80500209D010008EB15000899140008C0
:10001000E9150008A90200085D1A000800000000A8
:10002000000000000000000000000000EF150008C4
:10003000AB02000800000000ED150008F1150008F3
:10004000B7010008B7010008B7010008B7010008B0
:10005000B7010008B7010008AD020008B7010008A9
:10006000B7010008B7010008B7010008B701000890
:10007000B7010008B7010008B7010008B701000880
:10008000B7010008B7010008B7010008B701000870
:10009000B7010008B7010008B7010008B701000860
:1000A000B7010008B7010008B7010008B701000850
:1000B000B7010008B7010008B7010008B701000840
:1000C000B7010008B7010008B7010008B701000830
:1000D000B7010008511A0008B7010008B70100086D
:1000E000B3020008B7010008B7010008B701000813
:1000F000B7010008B7010008B7010008B701000800
:10010000B7010008B7010008B7010008B7010008EF
:10011000B7010008B70100089D160008B7010008E4
:10012000B7010008B7010008B7010008B7010008CF
:10013000B7010008B7010008B7010008B7010008BF
:10014000B7010008B7010008B7010008B7010008AF
:10015000B7010008B7010008B7010008B70100089F
:10016000B7010008B7010008B7010008B70100088F
:10017000B7010008B7010008B7010008000000003F
:10018000B7010008B7010008DFF80CD000F07AF8DA
:1001900000480047C51A0008A80500200648804707
:1001A00006480047FEE7FEE7FEE7FEE7FEE7FEE75C
:1001B000FEE7FEE7FEE7FEE78D160008890100086E
:1001C0002DE9F05F0546002092469B46884606468C
:1001D000814640241BE0284641464746224600F01F
:1001E00041F853465A46C01A914110D31146184659
:1001F000224600F028F82D1A67EB01084F462246E8
:100200000120002100F01FF817EB00094E41201ECD
:10021000A4F10104DFDC484631462A464346BDE8E6
:10022000F09FD2B201E000F8012B491EFBD27047CB
:100230000022F6E710B513460A4604461946FFF7B2
:10024000F0FF204610BD202A04DB203A00FA02F11C
:10025000002070479140C2F1200320FA03F31943B4
:1002600090407047202A04DB203A21FA02F0002156
:10027000704721FA02F3D040C2F1200291400843B6
:1002800019467047064C074D06E0E06840F0010350
:1002900094E8070098471034AC42F6D3FFF778FF94
:1002A000101B0008301B0008FEE77047012000F01B
:1002B0009BB84FF4005000F097B872B6FEE72DE9F6
:1002C000F0410446876D00F0A1F9064694F8350028
:1002D0000025022806D08020606584F83450012073
:1002E000BDE8F0812068016821F0160101602068F6
:1002F000416921F080014161206C08B9A06C20B1F6
:100300002068016821F0080101602068016821F07F
:10031000010101600CE000F079F9801B052807D984
:1003200020206065032084F8350084F83450D7E736
:1003300020680068C007EED194F85C103F20884028
:10034000B860012084F8350084F834500020C7E7F5
:1003500090F83510022903D08021416501207047B3
:10036000052180F835100068016821F00101016065
:100370000020704770B5164D164CAE15012816D0EA
:10038000B0F5005F23D101224021284600F038F962
:1003900001228021284600F033F93146284600F03A
:1003A00027F90DA02060BDE8704001F059BB012283
:1003B0004021284600F024F901223146284600F069
:1003C0001FF98021284600F013F905A0EAE770BD67
:1003D00000140240000000206B657932000000002C
:1003E0006B65793100000000044910B50A680242CB
:1003F00002D00860FFF7BEFF10BD0000143C0140B2
:100400002DE9F84FDFF8BCA10022012503264FF0AB
:100410000F090AF1040BAAF1040E00BF0B6805FADC
:1004200002F42340A34270D10F7907F00307012F94
:1004300001D0022F16D187684FEA420806FA08FC5D
:1004400027EA0C07D1F80CC00CFA08FC4CEA070CA0
:10045000C0F808C04768A7430C79C4F3001494405F
:100460003C4344600C79E443A4070AD0C4684FEAD3
:10047000420C06FA0CF7BC438F6807FA0CF72743C7
:10048000C7600C7904F00304022C12D1D40800EBED
:10049000840CDCF820405707FF0E09FA07F824EA1D
:1004A0000804D1F8108008FA07F848EA0408CCF8E4
:1004B000208004684FEA420C06FA0CF7BC430F791F
:1004C00007F0030707FA0CF7274307604C6814F49A
:1004D000403F70D03C4C276847F480472760246831
:1004E00022F0030704F480440094384C07EB040C1A
:1004F000DCF8084897074FEA177809FA08F7BC4371
:10050000334FB84202D1002724E054E0314FB842C3
:1005100001D101271EE0304FB84201D1022719E076
:100520002E4FB84201D1032714E02D4FB84201D11C
:1005300004270FE02B4FB84201D105270AE02A4FCC
:10054000B84201D1062705E0284FB84201D107275C
:1005500000E0082707FA08F72743CCF80878DAF80C
:1005600000405746D1F804C09C435FEACC2C00D52C
:100570001C433C60DBF800405F46D1F804C09C435C
:100580005FEA8C2C00D51C433C60DEF800407746C7
:10059000D1F804C09C435FEA8C3C00D51C433C600E
:1005A000084F083F3C68D1F804C09C435FEACC3C4C
:1005B00000D51C433C60521C102AFFF42FAFBDE84D
:1005C000F88F0000083C01404438024000300140F0
:1005D000000002400004024000080240000C0240FB
:1005E000001002400014024000180240001C0240AB
:1005F000426921EA02030A4043EA024181617047ED
:100600000AB1816170470904FBE700000148806876
:1006100070470000080000200248816802781144F9
:1006200081607047080000200B4810B5016841F454
:1006300000710160016841F480610160016841F46A
:1006400080710160032000F06FF80F2000F006F8C1
:1006500000F024F8002010BD003C024070B50D4DA4
:1006600004464FF47A712878B1FBF0F00A49096822
:10067000B1FBF0F000F00CFB48B9102C07D20022BF
:100680002146501E00F030F800206C6070BD012043
:1006900070BD000008000020140000200A4808B5C2
:1006A000016841F480410160006800F480400090DE
:1006B0000548001F016841F080510160006800F0AA
:1006C0008050009008BD000044380240002809DB3B
:1006D00000F01F02012191404009800000F1E0205C
:1006E000C0F8001170470000F0B40E4B1B680C46B8
:1006F000C3F30223C3F10705042D00D90425191DF6
:10070000072901D2002300E0DB1E012606FA05F1CD
:10071000491E214099409E40761E16403143F0BC50
:1007200001F0B0B90CED00E0064900F007020868DE
:100730004FF6FF03184040EA0220034A10430860C6
:10074000704700000CED00E00000FA052DE9F047CD
:100750000E46050065D0DFF81481D8F80000F7B226
:1007600000F00700B04207D288F80070D8F8000007
:1007700000F00700B04254D128683D4C810712D5E3
:10078000400703D5206840F4E05020602878000737
:1007900003D5206840F4604020602068A96820F0FC
:1007A000F000084320602878C0072DD030496868E1
:1007B0000839012812D0022813D0032811D0096863
:1007C000890700292DDA216821F003010143216006
:1007D000FFF71CFF814641F2883A0EE00968890361
:1007E000EFE709688901ECE7FFF710FFA0EB0901CB
:1007F000514502D90320BDE8F0872068696800F000
:100800000C00B0EB810FEFD1D8F80010404601F09A
:100810000701B14207D90770006800F00700B04235
:1008200001D00120E7E72878400705D52068E9686E
:1008300020F4E050084320602878000706D520689F
:10084000296920F4604040EAC100206000F038F8D7
:100850002168084AC1F30311515CC8400649086089
:1008600006480068FFF7FAFE0020C4E7003C02409B
:1008700008380240F81A0008140000200C0000207C
:100880000448054900680968044AC1F38221515CA3
:10089000C84070471400002008380240081B0008B8
:1008A0000448054900680968044AC1F34231515CB3
:1008B000C84070471400002008380240081B000898
:1008C000154810B5006810F00C02144813D01449F4
:1008D000042A0FD0082A0ED10F4C241F2268236847
:1008E00002F03F025B0207D52068C0F38810A0FB2E
:1008F000010106E0084610BD2168C1F38811A1FB83
:1009000000010023FFF75CFC2168C1F30141491C91
:100910004900B0FBF1F010BD083802400024F4009B
:1009200040787D012DE9F84F04006ED02078DFF883
:100930004C93C007A9F104054AD009F104000168ED
:10094000C1F38101012908D00068C0F381000228A9
:100950000AD1D9F80000400206D52868800337D5AF
:1009600060680028E1D033E06068B0F5803F10D0C7
:10097000B0F5A02F286810D020F4803028602868B7
:1009800020F4802028606068A8B1FFF73FFE06468B
:100990000DE0286840F48030F4E740F480202860BF
:1009A000F7E700BFFFF732FE801B642873D8286882
:1009B0008003F7D50CE0FFF729FE064605E000BFEF
:1009C000FFF724FE801B6428F0D828688003F7D442
:1009D0002078DFF8AC8280074FF0000A3ED5A748A8
:1009E000001D016811F00C0F08D00068C0F38100F1
:1009F00002280BD1D9F80000400207D428688007EC
:100A000016D5E068012800D112E033E1E068B8B102
:100A10000120C8F80000FFF7F9FD064605E000BF19
:100A2000FFF7F4FD801B0228C0D828688007F7D59F
:100A30002868216920F0F80040EAC10028600DE034
:100A4000C8F800A0FFF7E2FD064604E0FFF7DEFD70
:100A5000801B02281FD828688007F7D42078000759
:100A600022D5864F87486169703771B101210160D5
:100A7000FFF7CCFD064604E0FFF7C8FD801B022807
:100A800009D838688007F7D50EE0C0F800A0FFF756
:100A9000BDFD064605E082E0FFF7B8FD801B022899
:100AA0007DD838688007F7D42078400768D5DFF80C
:100AB000CCB100270BF13C0BDBF80000C0000BD4DD
:100AC000DBF8001041F08051CBF80010DBF800009B
:100AD000012700F0805000906B4E3068C00510D4A4
:100AE000306840F480703060FFF790FD009005E0C2
:100AF000FFF78CFD0099401A022850D83068C005D5
:100B0000F6D55E4EA0686C3601280FD005283068F7
:100B100010D020F001003060306820F00400306018
:100B2000A068B8B1FFF772FD00900FE0306840F0A8
:100B30000100F4E740F004003060F7E7FFF766FDDE
:100B40000099411A41F28830814266D830688007A6
:100B5000F4D50EE0FFF75AFD009007E0FFF756FDD1
:100B60000099411A41F28830814256D83068800796
:100B7000F4D42FB1DBF8001021F08051CBF8001035
:100B8000A069C8B33D49091D0968C1F38101022963
:100B90004AD00228504607D0C8F8600000E03CE088
:100BA000FFF734FD04463BE04746C8F86000FFF716
:100BB0002DFD064605E000BFFFF728FD801B02283B
:100BC0002BD828688001F7D4D4E907010843A16A2B
:100BD0002E4A490802EB0141626A41EA8211084348
:100BE00094F82C1040EA0161C9F800100120386621
:100BF000FFF70CFD044606E03EE000BFFFF706FDF0
:100C0000001B022809D828688001F7D534E000BF0E
:100C1000FFF7FCFC001B022802D90320BDE8F88F77
:100C200028688001F4D427E00128F7D0D9F8000023
:100C3000E26900F4800191421CD1226A00F03F0178
:100C4000914217D147F6C071626A0140B1EB821F31
:100C500010D1A26A4FF0FF3300F4403103EB52028F
:100C6000B1EB024F06D194F82C1000F07060B0EB9D
:100C7000016F01D00120D1E70020CFE70438024006
:100C800000004742800E4742007000400000FFFF16
:100C900010B5401EB0F1807F01D3012010BD4FF090
:100CA000E02460610F21601700F0ECFE0020A061DD
:100CB00007202061002010BD7047704770B590F884
:100CC0003C20012A32D0012480F83C40022280F8E6
:100CD0003D2003685A689D6822F070060A68324316
:100CE0005A60134B02689A4214D0B2F1804F11D06F
:100CF000104B9A420ED0104B9A420BD00F4B9A4297
:100D000008D00F4B9A4205D00E4B9A4202D00E4BA0
:100D10009A4204D1496825F080031943916080F814
:100D20003D40002180F83C10084670BD022070BD97
:100D3000000001400004004000080040000C00409A
:100D400000040140004001400018004010B50400BC
:100D500003D094F83D0010B107E0012010BD002041
:100D600084F83C00204600F01FF8022084F83D0083
:100D7000211D206800F098FC012084F8460084F8CA
:100D80003E0084F83F0084F8400084F8410084F875
:100D9000420084F8430084F8440084F8450084F855
:100DA0003D00002010BD000008B500680B498842D6
:100DB00012D10B48016841F0100101600068002267
:100DC00000F0100000900E213620FFF78DFCBDE8EA
:100DD00008403620FFF77ABC08BD00000010004034
:100DE0004038024090F83D10012901D001207047A1
:100DF000022180F83D100168CA6842F00102CA6011
:100E000000681149884214D0B0F1804F11D00F49C9
:100E100088420ED00E4988420BD00E49884208D035
:100E20000D49884205D00D49884202D00C498842BC
:100E300004D1816801F00701062903D0016841F05F
:100E400001010160002070470000014000040040E3
:100E500000080040000C0040000401400040014038
:100E600000180040704770B50446006801694FF0F3
:100E70000005C943890715D4C168C943890711D43E
:100E8000E91E0161012020772068806980072046E3
:100E900002D0FFF7E7FF04E000F098F8204600F0EA
:100EA00096F8257720680169C943490717D4C168B6
:100EB000C943490713D46FF0040101610220207770
:100EC0002068806910F4407F204602D0FFF7CAFFF7
:100ED00004E000F07BF8204600F079F825772068E0
:100EE0000169C943090716D4C168C943090712D467
:100EF0006FF008010161042020772068C069800735
:100F0000204602D0FFF7AEFF04E000F05FF8204675
:100F100000F05DF8257720680169C943C90617D438
:100F2000C168C943C90613D46FF0100101610820DC
:100F300020772068C06910F4407F204602D0FFF778
:100F400091FF04E000F042F8204600F040F82577D9
:100F500020680169C943C90708D1C168C943C907E5
:100F600004D1891E0161204600F032F82068016931
:100F7000C943090609D4C168C943090605D46FF0FD
:100F8000800101612046FFF797FE20680169C9438F
:100F9000490609D4C168C943490605D46FF0400128
:100FA0000161204600F020F820680169C9438906E4
:100FB0000BD4C168C943890607D46FF020010161D1
:100FC0002046BDE87040FFF778BE70BD704770479F
:100FD0000349884203D140210248FFF709BB70470B
:100FE000180000200014024070477047704700004E
:100FF000F8B5016804460868CA684B6910F00F0F1D
:101000004FF000055AD003F0010602F49077374301
:1010100065D0C10705D0D10503D5216C41F0010190
:101020002164410705D5D90703D0216C41F00201A5
:101030002164810705D5D90703D0216C41F0040153
:101040002164010707D502F02001314303D0216C50
:1010500041F008012164216C00293BD0800604D5B1
:10106000900602D5204600F0B2FB20684069216C52
:10107000C0F3801001F00801014320462BD000F09E
:101080007FFB20684069400621D52068143050E875
:10109000001F21F0400140E80012002AF5D1A06BAA
:1010A000A8B16C490165A06BFFF752F9002811D077
:1010B000A06B016D01B0BDE8F040084783060ED576
:1010C00093060CD52046BDE8F84000F080BB2046D2
:1010D000FFF78CFFF8BDFFF789FF2564F8BD266B8D
:1010E0002023012E79D1C60677D5D60675D5086896
:1010F000486800904869400640D5A16B0868406880
:101100000004000CEAD0A28D8242E7D9E085C869CC
:10111000B0F5807F2DD020680C3050E8001F21F4FE
:10112000807140E80012002AF5D12068143050E8A0
:10113000001F21F0010140E80012002AF5D12068CB
:10114000143050E8001F21F0400140E80012002A4E
:10115000F5D184F83E30256320680C3050E8001F3C
:1011600021F0100140E80012002AF5D1A06BFFF732
:10117000A6F8A08DE18D401A81B229E0A08DE18D05
:10118000401A81B2E08D0028A8D00029A6D020689E
:101190000C3050E8002F22F4907240E80026002E18
:1011A000F5D12068143050E8002F22F0010240E809
:1011B0000026002EF5D184F83E30256320680C30DF
:1011C00050E8002F22F0100240E80023002BF5D158
:1011D0002046FFF70AFFF8BDFFE705062BD51506E9
:1011E00029D594F83D002128F5D1A068B0F5805F9D
:1011F00001D12069B0B1206A411C216221680078C8
:101200004860E08C401E0004000CE084E3D12068BC
:10121000C16821F08001C1602068C16841F04001CF
:10122000C160D8E7206A0088C0F308004860206ADF
:10123000801C2062E5E74006CDD55006CBD5CA68B4
:10124000204622F04002CA6084F83D3000F023F9C5
:10125000C1E700007117000870B5040004D094F8CD
:101260003D00002510B106E0012070BD84F83C501F
:10127000204600F023F8242084F83D002068C1684F
:1012800021F40051C160204600F002FB2068016992
:1012900021F4904101612068416921F02A014161F6
:1012A0002068C16841F40051C1602564202084F8A1
:1012B0003D0084F83E00002070BD000010B586B0EF
:1012C000044614216846FEF7B3FF18492068884297
:1012D00029D11748016841F010010160006800F051
:1012E0001000059012481438016841F001010160B6
:1012F0000068694600F0010005904FF4C06000905E
:101300000220019001200290032003900720049006
:101310000848FFF775F800220D212520FFF7E4F9B2
:101320002520FFF7D3F906B010BD000000100140E2
:10133000443802400000024090F83E30202B0ED18D
:1013400059B152B190F83C30012B08D0012380F8FC
:101350003C300023036300F021BB012070470220D2
:101360007047000070B500681749884224D11748BB
:10137000002489150278FF2A0BD304701448FEF765
:1013800057FF4FF6FF730A2212A1154800F02AF802
:1013900012E00F4B45789D54521CD2B202701A4491
:1013A00012F8013C0A2B07D112F8022C0D2A03D1A6
:1013B00004700748FEF73CFFBDE870400349012276
:1013C000491C0748FFF7B8BF001001400400002087
:1013D00060000020CAFDBEDDD2E7B3F600000000C9
:1013E000600100202DE9F843044690F83D001F46B7
:1013F00016460D4620284CD1C5B1BEB194F83C002C
:10140000012846D0012084F83C004FF00008C4F8C1
:101410004080212084F83D00FFF7F8F8A68481463B
:10142000E684A068B0F5805F03D004E00120BDE849
:10143000F883206928B12E465FF0000584F83C80CF
:101440000EE00026FAE78021204600F0C4FAA0B999
:10145000AEB116F8010B21684860E08C401EE084B4
:10146000E08C4B464FF0000200970028EBD14FF084
:101470004001204600F0AFFA30B10320D7E735F83D
:10148000020BC0F30800E6E7202084F83D000020AE
:10149000CDE70220CBE77047FEE70000F0B587B04C
:1014A00014216846FEF7C4FE2B480024016841F071
:1014B00004010160016801F004010591016841F037
:1014C00020010160016801F020010591016841F0EF
:1014D00080010160016801F080010591016841F01F
:1014E0000101016000681D4F00F001004FF4E0763B
:1014F0000590012231463846FFF782F84FF400503C
:101500004FF48815CDE90005694602941448FEF7AA
:1015100077FF11200096CDE901046946384603940F
:10152000FEF76EFF0120CDE90005694602940D48E3
:10153000FEF766FF00220C210620FFF7D5F80620F3
:10154000FFF7C4F800220B212820FFF7CDF8282050
:10155000FFF7BCF807B0F0BD30380240001402407D
:1015600000080240000002401CB500240F4800940F
:101570000D490194016042F2CF01C0E9011441F22A
:1015800087318461C160FFF7E1FB08B1FEF795FE8A
:101590000094694605480194FFF790FB002801D0AC
:1015A000FEF78BFE1CBD000000100040180000205C
:1015B0000C4810B50A4901604FF4E1314160002147
:1015C00081600C22C160C0E904128161C161FFF732
:1015D00043FE002803D0BDE81040FEF76EBE10BDEC
:1015E0000010014060010020FEE7FEE770477047F1
:1015F000FFF712B830B593B030216846FEF718FEF9
:1016000014210CA8FEF714FE1E480025016841F0C5
:1016100080510160006800F0805011901A48016804
:1016200041F4804101600068022400F48040119080
:1016300001200090000401908001CDE906401920AE
:1016400008904FF4A870CDE9090404200B90684677
:10165000FFF768F908B172B6FEE70CA90F2081E820
:1016600031004FF4A0500F904FF48050109005219E
:101670000CA8FFF76BF8002801D072B6FEE713B094
:1016800030BD000040380240007000400248016850
:1016900041F470010160704788ED00E00148FFF7F8
:1016A000E2BB000018000020F0B50268254C264D72
:1016B000264E274F274B4FF0804CA04209D0604563
:1016C00007D0A84205D0B04203D0B84201D098421A
:1016D00004D122F0700E4A6842EA0E02A0421BD0EA
:1016E000604519D0A84217D0B04215D0B84213D0E7
:1016F000984211D0184DA8420ED0184DA8420BD0D8
:10170000174DA84208D0174DA84205D0164DA84243
:1017100002D0164DA84203D122F44075CA682A436C
:101720004D6922F080022A4302608A68C2620A6818
:101730008262A04201D0984201D10969016301216E
:101740004161F0BD0000014000040040000800407D
:10175000000C0040000401400040014000440140F2
:101760000048014000180040001C004000200040DC
:1017700010B5806B0021C185C184FFF737FC10BD17
:1017800001680C3151E8002F22F4907241E80023E7
:10179000002BF5D10168143151E8002F22F001022D
:1017A00041E80023002BF5D1016B012909D1016823
:1017B0000C3151E8002F22F0100241E80023002BE9
:1017C000F5D1202180F83E1000210163704708B553
:1017D00090F83E10222901D0022008BD82684FF403
:1017E00080539A4201D1016921B1816A9A421BD08A
:1017F0004AB10AE00268816A5268C2F308020A80AC
:10180000816A891C08E0026972B10268526802F0BC
:101810007F020A70816A491C8162C18D491E0904D8
:10182000090CC18503D019E002685268F1E701682C
:10183000CA6822F02002CA600168CA6822F4807275
:10184000CA6001684A6922F001024A61202180F8D9
:101850003E10016B012903D0FFF784FD002008BD75
:101860000021016301680C3151E8002F22F01002C1
:1018700041E80023002BF5D101680A68D20602D5A1
:101880000A6849680091818DFFF7AFFBE6E7000029
:1018900070B5044600680169E26821F440511143C3
:1018A00001612169A068E269084361691143084345
:1018B0002168CA6849F20C639A430243CA602068EF
:1018C0004169A26921F440711143416131492068A5
:1018D000884202D03049884202D1FEF7E1FF01E0A0
:1018E000FEF7CEFFE2690023192164253226B2F506
:1018F000004F626828D0A0FB0101930F9200FEF711
:101900005FFC0146B0FBF5F06FF01802504301EBAD
:10191000800006EB0010B0FBF5F000F0F002B1FB28
:10192000F5F002EB0012B1FBF5F06FF0180358432D
:1019300001EB800006EB0010B0FBF5F000F00F00AB
:1019400021681044886070BDA0FB010192185B41C2
:10195000FEF736FC0146B0FBF5F00201B1FBF5F0F5
:101960006FF01803584301EB800006EBC000B0FB9A
:10197000F5F000F0F80002EB4002B1FBF5F058433F
:1019800001EB800006EBC000B0FBF5F000F00700B3
:10199000D6E70000001001400014014081628285FA
:1019A000C28500210164222280F83E2080F83C108C
:1019B000016921B10168CA6842F48072CA60016895
:1019C0004A6942F001024A610068C16841F02001A1
:1019D000C160002070472DE9F041984617460E4639
:1019E0000446069D27E0681C25D02DB1FEF70EFEAB
:1019F000A0EB0800A8421ED920680C3050E8001F58
:101A000021F4D07140E80012002AF5D1206814308A
:101A100050E8001F21F0010140E80012002AF5D132
:101A2000202084F83D0084F83E00002084F83C002B
:101A30000320BDE8F0812068006836EA000004D089
:101A40000020B842CFD00020F3E70120F9E70000E2
:101A50000148FFF7CDBA000060010020FEE700005A
:101A600070B5054600244FF47A76291933460122D1
:101A70000348FFF7B7FC641C285D0028F5D170BD52
:101A8000600100200907090E002804DB00F1E020B6
:101A900080F80014704700F00F0000F1E02080F89B
:101AA000141D704702E008C8121F08C1002AFAD1AD
:101AB00070477047002001E001C1121F002AFBD1CE
:101AC00070470000FEF7B0FDFFF794FDFFF7E6FC5E
:101AD000FFF76EFDFFF748FD012204490448FFF7B8
:101AE0002BFC0448FFF77EF9FEE70000050000200C
:101AF000600100201800002000000000000000002D
:101B000001020304060708090000000001020304A3
:101B1000301B00080000002018000000A41A000874
:101B2000481B00081800002090050000B41A0008A7
:101B30000000000000000000010000001000000094
:081B4000000000000024F40085
:040000050800018965
:00000001FF
