:020000040800F2
:10000000400400209D010008AB090008EF0800082B
:10001000A909000887020008490D00080000000037
:10002000000000000000000000000000410B00087C
:10003000AB07000800000000290A0008FD0B0008BB
:10004000B7010008B7010008B7010008B7010008B0
:10005000B7010008B7010008B7010008B7010008A0
:10006000B7010008B7010008B7010008B701000890
:10007000B7010008B7010008B7010008B701000880
:10008000B7010008B7010008B7010008B701000870
:10009000B7010008B7010008B7010008B701000860
:1000A000B7010008B7010008B7010008B701000850
:1000B000B7010008B7010008B7010008B701000840
:1000C000B7010008B7010008B7010008B701000830
:1000D000B7010008B7010008B7010008B701000820
:1000E000B7010008B7010008B7010008B701000810
:1000F000B7010008B7010008B7010008B701000800
:10010000B7010008B7010008B7010008B7010008EF
:10011000B7010008B7010008B7010008B7010008DF
:10012000B7010008B7010008B7010008B7010008CF
:10013000B7010008B7010008B7010008B7010008BF
:1001400089020008B7010008B7010008B7010008DC
:10015000B7010008B7010008B7010008B70100089F
:10016000B7010008B7010008B7010008B70100088F
:10017000B7010008B7010008B7010008B70100087F
:10018000B7010008B7010008DFF80CD000F04AF80A
:100190000048004725120008400400200648804718
:1001A00006480047FEE7FEE7FEE7FEE7FEE7FEE75C
:1001B000FEE7FEE7FEE7FEE7010C00088901000804
:1001C0002DE9F05F0546002092469B46884606468C
:1001D000814640241BE0284641464746224600F01F
:1001E00042F853465A46C01A914110D31146184658
:1001F000224600F029F82D1A67EB01084F462246E7
:100200000120002100F020F817EB00094E41201ECC
:10021000A4F10104DFDC484631462A464346BDE8E6
:10022000F09F0000064C074D06E0E06840F0010337
:1002300094E8070098471034AC42F6D3FFF7A8FFC4
:100240007415000894150008202A04DB203A00FAEF
:1002500002F1002070479140C2F1200320FA03F31D
:10026000194390407047202A04DB203A21FA02F01B
:100270000021704721FA02F3D040C2F120029140E0
:10028000084319467047FEE710B50C4A00210C4898
:1002900000F0CEF909480B494268A2F59853143B87
:1002A00005D1027A042A02D1807A082802D00020DF
:1002B000086010BD0120086010BD00002C00002067
:1002C000006800401000002010B500F0B5F800F004
:1002D0009BF900F06BF9BDE8104000F087B8000012
:1002E00010B50C4988420AD101214C06204600F085
:1002F000B9FB2046BDE81040002100F0B3BB01214E
:100300008C06204600F0AEFB2046BDE810400021E0
:1003100000F0A8BB00640040F0B5827A0121914052
:10032000304C226842F0010222602E4D1C352A68B2
:100330008A432A602B4A067B0C322B4B002E14D1A9
:1003400016688E4316604688C78846EA0746877A4D
:1003500003EBC707C7F840660688878846EA074662
:10036000877A03EBC707C7F84466067B012E14D1D2
:1003700016680E4316604288068842EA0642867A6C
:1003800003EBC606C6F84026C288868842EA0642C3
:10039000867A03EBC603C3F84426124AC37A121DB9
:1003A0003BB113680B4313600E4A0389143223B127
:1003B00006E013688B431360F6E713688B43136002
:1003C0000389012B02D113680B431360407B012882
:1003D00002D1286808432860206820F001002060CE
:1003E000F0BD000000660040006000401FB50E2018
:1003F0008DF80A0000208DF80B0001218DF80C10FB
:10040000ADF8000049F6A402ADF802204FF6FF72E5
:10041000ADF80420ADF80620ADF808008DF80D10F9
:100420006846FFF779FF01220221024800F032F806
:100430001FBD0000006800407CB50121022000F0D3
:10044000F5FA134D09220C21284600F039FA092249
:100450000D21284600F034FA4FF400500090022499
:100460008DF804408DF8054000218DF8061001211B
:100470008DF807106946284600F0E4F9E102009182
:100480008DF804406946284600F0DCF97CBD000088
:1004900000040240002A03D042690A4342617047C7
:1004A00042698A434261704710B50022036823F015
:1004B00002030360036843F0010303604FF6FF7318
:1004C00000E0521C4468E40701D19A42F9D1426825
:1004D000D2073ED08A79012A3DD0026822F08002FC
:1004E0000260CA79012A3BD0026822F04002026011
:1004F0000A7A012A39D0026822F0200202604A7A80
:10050000012A37D0026822F0100202608A7A012A9A
:1005100035D0026822F008020260CA7A012A33D07C
:10052000026822F0040202608A78CC78920742EADC
:1005300004620C7942EA04424C79098842EA045286
:10054000491E0A43C261016821F0010101600021D6
:1005500020E0002010BD026842F080020260C0E787
:10056000026842F040020260C2E7026842F02002E4
:100570000260C4E7026842F010020260C6E7026847
:1005800042F008020260C8E7026842F0040202601A
:10059000CAE7491C4268D20701D09942F9D14068A4
:1005A000C00701D0002010BD012010BD3EB50121C3
:1005B0004FF0C06000F048FA124C2046FFF790FE62
:1005C000684600F087F800228DF8062001218DF89A
:1005D00007108DF808108DF809208DF80A208DF885
:1005E0000B208DF802108DF8031003208DF8040005
:1005F0008DF805100620ADF8000069462046FFF78B
:1006000053FF3EBD0068004008B54FF4C06000F0E5
:1006100001FA40208DF8000000208DF801008DF8CF
:10062000020001208DF80300684600F0BFF908BD04
:1006300010B500EB0113D3F8B04104F004041472B8
:10064000002C2CD0D3F8B041E408546003F5D873E3
:100650001C6804F0020454725C6804F00F04947285
:100660005C68240AD4749C68D4729C68240A14734D
:100670009C68240C54739C68240E9473DC68D473B7
:10068000DC68240A1474DC68240C5474DB681B0EC8
:10069000937449B1016941F02001016110BDD3F8A3
:1006A000B041640D1460D1E7C16841F02001C16020
:1006B00010BD002141F21432426004220272002275
:1006C0004272082282724218D172491CC9B20829AA
:1006D000F9D3704700218171C17101724172817239
:1006E000C1728170C1700321017102214171012128
:1006F0000180704730B50246002093685B010AD440
:100700009068000101D5012005E09068C00001D586
:10071000022000E0042004283BD002EB0012D2F8B3
:10072000803103F00103C2F880310B7A93B3D2F821
:1007300080414D681C434B7A43EAC5031C43C2F811
:1007400080418B7A03F00F038B7202F5C0725368FD
:1007500023F00F03536053688C7A23435360CB7AA2
:100760008C7B0D7B43EA04634C7B240444EA052420
:1007700023439360CB7B8C7C43EA04634C7C097CF1
:10078000240444EA01210B43D360116841F00101C4
:10079000116030BDFFE7D2F880314C7A23430C88DA
:1007A00043EA4453C2F88031CBE7704770B586B056
:1007B0000121084600F03AF90121102000F060F90B
:1007C0001E4E07220A21304600F07AF8072209213E
:1007D000304600F075F800248DF8164001208DF8A1
:1007E000170002258DF81450410204918DF8155020
:1007F00004A9304600F026F88DF8145068020490E1
:1008000004A9304600F01EF84FF4E1300090ADF836
:100810000440ADF80640ADF80840ADF80C400C209F
:10082000ADF80A00064C6946204600F02BFA01217B
:10083000204600F013FA06B070BD00000000024030
:10084000001001402DE9F041002201274FF0030C78
:1008500007FA02F50B682B40AB422CD10668530017
:100860000CFA03F4A64306600E79D0F800809E408F
:1008700046EA080606600E79012E01D0022E12D13A
:100880008668A64386604E79D0F808809E4046EA86
:10089000080686604668AE43466045688E79964095
:1008A000B6B235434560C568A543C560CC799C4068
:1008B000C3681C43C460521C102AC9D3BDE8F08130
:1008C00010B54B07DB0E9A40C90800EB8100016AA6
:1008D0000F249C40A1430162016A1143016210BDD3
:1008E0000246002012690A4200D001207047FEE74C
:1008F0001CB50121052000F099F80120009000208E
:100900008DF804008DF8070069460548FFF79AFF47
:100910004FF40050009069460248FFF793FF1CBD5A
:10092000000002400008024070B504460D4629460A
:100930002046FFF7D5FF012801D0002070BD2946D1
:100940002046FFF7CDFF0128F9D0012070BD00003F
:100950002DE9FC410121202000F068F8402400949A
:1009600001208DF8040000218DF806108DF8070095
:100970008DF805100B4F69463846FFF763FF802658
:10098000009669463846FFF75DFFA5000095694669
:100990003846FFF757FF034818300480068005806B
:1009A000BDE8FC8100140240FEE7704730B50F231C
:1009B000C27801250178002A1FD0154A126802F476
:1009C000E062C2F5E062C2F30722C2F10404D34040
:1009D0004278A24084781C401443220101F1E021B6
:1009E00081F80024007800F01F018D40400980004C
:1009F00000F1E020C0F8005130BD01F01F0085403B
:100A00004809800000F1E020C0F8805130BD0000AE
:100A10000CED00E0024908430249086070470000FD
:100A20000000FA050CED00E070470000054A0029BF
:100A300003D0116801431160704711688143116050
:100A40007047000030380240054A002903D0116881
:100A500001431160704711688143116070470000C5
:100A600040380240054A002903D011680143116053
:100A700070471168814311607047000020380240C0
:100A8000054A002903D011680143116070471168BD
:100A900081431160704700004438024070B5244B18
:100AA000196801F00C01234C00291ED0224E0429A4
:100AB0001DD008291DD00460196801F0F001090952
:100AC0001E4A545C0168E14041601C6804F4E05433
:100AD000A40A145D21FA04F484601B6803F46043E3
:100AE0005B0BD25CD140C16070BD0460E4E706607E
:100AF000E2E70F4A121F1168C1F38055116801F037
:100B00003F0135B1B6FBF1F11468C4F388146143B9
:100B100005E0B4FBF1F11468C4F388146143126872
:100B2000C2F30142521C5200B1FBF2F10160C3E773
:100B3000083802400024F40040787D0100000020C5
:100B4000704700000CB50022019200922749086806
:100B500040F4803008604FF4A043086800F400308F
:100B600000900198401C0190009810B9019898429B
:100B7000F3D10868800302D50120009000E00092C4
:100B80000098012831D119484030026842F0805263
:100B900002601748026842F440420260134808307D
:100BA00002680260026842F400420260026842F495
:100BB000A0520260021F0F4B13600A6842F080725D
:100BC0000A600A689201FCD50B4A40F20571116077
:100BD000016821F003010160016841F00201016038
:100BE0000168C1F381010229FAD10CBD003802402D
:100BF0000070004019544007003C0240704700005C
:100C000010B51248016841F4700101601048016894
:100C100041F0010101600E4A0021083211600268B2
:100C20000C4B1A400260031D0B4A1A60026822F442
:100C30008022026006480C300160FFF783FF034901
:100C40004FF000608039086010BD000088ED00E0C2
:100C500000380240FFFFF6FE10300024002904D0C7
:100C6000818941F4005181817047818921F40051CB
:100C7000818170470246002012880A4200D001207C
:100C8000704700007FB504460D46208A20F440518D
:100C9000E88808432082A08941F20C618843A98832
:100CA0002A8911436A8902431143A181A08A20F451
:100CB0004071A8890843A0826846FFF7EFFE1E48EE
:100CC000844202D01D48844201D1039800E002987A
:100CD000A189090408D500EBC00101EB00102968C7
:100CE0004900B0FBF1F007E000EBC00101EB0010A0
:100CF00029688900B0FBF1F06422B0FBF2F1090130
:100D00000B096FF018056B4300EB8300A3891D04EA
:100D10004FF0320307D503EBC000B0FBF2F000F058
:100D20000700084306E003EB0010B0FBF2F000F010
:100D30000F00084320817FBD0010014000140140D6
:100D4000C1F3080181807047FEE700000FB4054B36
:100D500010B503A9044A029800F018F810BC5DF819
:100D600014FB0000011200081400002002E008C873
:100D7000121F08C1002AFAD170477047002001E015
:100D800001C1121F002AFBD1704700002DE9FF4F5F
:100D90008DB00F460546002606E025280BD0DDE97C
:100DA0000F1290476D1C761C28780028F5D111B0E1
:100DB0003046BDE8F08F0024A246A1460122EC494E
:100DC00000E0044315F8013F203B02FA03F008421B
:100DD000F7D128782A2810D06FF02F022878A0F1B8
:100DE0003001092914D80AEB8A0102EB410144F0D1
:100DF000020400EB010A6D1CF0E701CF5FEA000A74
:100E000003D544F40054CAF1000A44F002046D1CF6
:100E100028782E2817D115F8010F44F004042A2849
:100E20000ED06FF02F022878A0F1300109290AD8DE
:100E300009EB890102EB410100EB01096D1CF2E7AE
:100E400057F8049B6D1C28786C280FD006DC4C28C2
:100E500017D068280DD06A2814D104E0742810D067
:100E60007A280FD10DE044F400140AE044F4801411
:100E700001E044F440146978814202D104F5801401
:100E80006D1C6D1C2A786E2A1FD00CDC632A31D0B1
:100E900004DC002A8BD0582A11D1A3E0642A68D040
:100EA000692A0CD165E0732A2ED004DC6F2A73D036
:100EB000702A04D19BE0752A6FD0782A6ED0104634
:100EC000DDE90F129047761C50E1C4F3025002286E
:100ED00006D0032809D0042801CF09D0066045E1D7
:100EE00001CFF117C0E9006140E101CF06803DE18B
:100EF00006703BE117F8040B8DF8000000208DF818
:100F00000100EB46012003E057F804BB4FF0FF302F
:100F100061074FF0000102D40DE008F1010188469D
:100F200049450FDA8045F8DB1BF808100029F4D199
:100F300008E008F1010188468142FADB1BF808103D
:100F40000029F6D1DDE90F23AAEB080081462146EE
:100F500000F036F9304400EB080604E0DDE90F123A
:100F60001BF8010B9047B8F10108F7D2214648461B
:100F7000F7E00A21C4F302534FF0000B0891022B53
:100F800004D001CFC117032B09D00AE0FF1D27F0C1
:100F90000707F7E8020108E032E01FE020E000B2B6
:100FA000C117042B01D140B2C117031E71F1000318
:100FB00007DA4FF0000CD0EB0C006CEB01012D2395
:100FC00002E0230504D52B238DF82430012303E010
:100FD000E30701D02023F7E7984658E00A2110E004
:100FE00010210EE010204FF0000B08900CE01021B3
:100FF0004FF0000B44F004044FF00809089103E09F
:1010000008214FF0000B0891C4F30253022B04D0C7
:1010100001CF0021032B06D006E0FF1D27F00707B4
:10102000F7E8020103E080B2042B00D1C0B24FF018
:10103000000823072BD5702A07D0DDF820C08CF0DC
:10104000100C5CEA0B0C05D00EE040238DF8243028
:10105000012308E050EA010306D030238DF8243044
:101060008DF8252002239846DDF820C08CF0080C6E
:101070005CEA0B0C0BD150EA010301D1630706D5E2
:1010800030238DF824304FF00108A9F10109582AC6
:1010900004D038A20B9208AA0A920BE03AA2F9E710
:1010A0005B46089AFFF78CF80B9B9B5C0A9A521ED2
:1010B0000A92137050EA0102F2D10A98ADEB0000D7
:1010C00000F1200B600702D524F4803401E04FF0DA
:1010D0000109D94502DDA9EB0B0000E0002000EB7F
:1010E0000B0141440890AAEB010AE00306D4DDE9B4
:1010F0000F232146504600F063F806444FF00009E4
:1011000008E009A911F80900DDE90F12904709F17B
:101110000109761CC145F4DBE0030CD5DDE90F23A2
:101120002146504600F04CF8064404E0DDE90F1279
:1011300030209047761C0899481E08900029F5DC5D
:1011400008E00A980A990078491C0A91DDE90F1213
:101150009047761CBBF10001ABF1010BF1DC21469D
:101160005046DDE90F2300F019F806446D1C1BE61C
:10117000092801003031323334353637383961626D
:101180006364656600000000303132333435363731
:101190003839414243444546000000002DE9F04102
:1011A000044600251E461746880404D405E0394647
:1011B0002020B0476D1C641EF9D52846BDE8F0819B
:1011C0002DE9F041044600251E469046C80301D58E
:1011D000302700E02027880404D505E04146384642
:1011E000B0476D1C641EF9D52846BDE8F08101B5F5
:1011F00002E00098401E009000980028F9D108BD38
:1012000070B50446064DE1B22846FFF799FD8021EE
:101210002846FFF72FFD0028F9D0204670BD0000BA
:1012200000100140FFF794FBFFF7C0FAFFF760FBE7
:10123000FFF74AF848A0FFF789FD51A0FFF786FDA8
:1012400058A0FFF783FD5BA0FFF780FD6348FFF721
:101250007DFD6348FFF77AFD62A0FFF777FD704CD4
:101260008025A615DFF8BCB1A71C4FF00A090121A3
:101270006D48FFF759FB01283FD14FF04008A4F813
:10128000008025803E806948FFF713FA6749684867
:10129000FFF730FA42F21070FFF7A9FFA4F80080C0
:1012A0003D80268063A0FFF751FD69A0FFF74EFD4A
:1012B0005E4841686CA0FFF749FDDFF870A10AF1B4
:1012C0000B0A70A0FFF742FD4FF0000873A01AF858
:1012D0000810FFF73BFD08F1010090FBF9F109FB55
:1012E000110010B92EA0FFF731FD08F10108B8F187
:1012F000080FEBDB2AA0FFF729FDDBF8000001282F
:10130000B5D1402020803D80268066A0FFF71EFDDD
:10131000DFF818A10AF11F0A5AA0FFF717FD4FF0D6
:1013200000085EA01AF80810FFF710FD08F1010090
:1013300090FBF9F109FB110010B919A0FFF706FDA8
:1013400008F10108B8F1080FEBDB15A0FFF7FEFC70
:101350000020CBF800008AE70D0A20BBB6D3ADCA47
:10136000B9D3C3D2B0BBF0202053544D3332204602
:1013700034303720BFAAB7A2B0E5A1A30D0A000000
:101380000D0A20D2B0BBF0463430372043414ECD59
:10139000A8D1B6BBD8BBB7CAB5D1E9C0FDB3CC0D97
:1013A0000A0000000D0A20CAB5D1E9B2BDD6E8A3F3
:1013B000BA0D0A000D0A20312ECAB9D3C3BBD8BB5F
:1013C000B7C4A3CABDA3ACB2BBD0E8D2AAC1ACBD5E
:1013D000D3CDE2B2BFD0BEC6AC0D0A0004150008E2
:1013E000B81400080D0A20342EB1BEC0FDD6D0B509
:1013F000C463616EB2A8CCD8C2CACEAA314D4270C5
:1014000073A3ACCEAA73746D3332B5C463616ED767
:10141000EEB8DFCBD9C2CAA1A3200D0A000000009C
:1014200018140240100000200000024018000020A4
:10143000006800400D0AD2D1CAB9D3C343414EB7A8
:10144000A2CBCDCAFDBEDDB0FCA3A10D0A000000F9
:101450000D0AB7A2CBCDB5C4B1A8CEC4C4DAC8DDDD
:10146000CEAAA3BA0D0A00000D0A20C0A9D5B94919
:1014700044BAC54578744964A3BA30782578200DFC
:101480000A0000003C3C2D43414E2D444542554747
:101490002D41525241592D3E3E0A000025303278EE
:1014A000202020000D0A43414EBDD3CAD5B5BDCA88
:1014B000FDBEDDA3BA0D0A000D0A20332EC8F4BF0D
:1014C000AAB7A2B0E5B5C443414EBDD3CAD5B5BD98
:1014D000C0A9D5B94944CEAA307831333134B5C426
:1014E000CAFDBEDDB0FCA3ACBBE1B0D1CAFDBEDD20
:1014F000D2D4B4F2D3A1B5BDB4AEBFDAA1A3200D4E
:101500000A0000000D0A20322EB0B4CFC2BFAAB725
:10151000A2B0E5B5C44B455931BCFCA3ACBBE1CA94
:10152000B9D3C343414ECFF2CDE2B7A2CBCD302DDC
:1015300037B5C4CAFDBEDDB0FCA3ACB0FCB5C4C0B9
:10154000A9D5B94944CEAA3078313331342028D3D3
:10155000C9D3DABBD8BBB7C4A3CABDA3ACCAC7D76B
:10156000D4BCBAB7A2CBCDB8F8D7D4BCBA290D0A2F
:101570000000000094150008000000201800000082
:101580006C0D0008AC1500081800002028040000AD
:101590007C0D0008000000000102030401020304A6
:0C15A00006070809000000000000000021
:040000050800018965
:00000001FF
