:020000040800F2
:10000000180400209D0100083F030008E1020008D9
:100010003D030008E50100080D0500080000000090
:100020000000000000000000000000006103000864
:10003000E701000800000000410300087D040008FB
:10004000B7010008B7010008B7010008B7010008B0
:10005000B7010008B7010008E9010008B70100086E
:10006000B7010008B7010008B7010008B701000890
:10007000B7010008B7010008B7010008B701000880
:10008000B7010008B7010008B7010008B701000870
:10009000B7010008B7010008B7010008B701000860
:1000A000B7010008B7010008B7010008B701000850
:1000B000B7010008B7010008B7010008B701000840
:1000C000B7010008B7010008B7010008B701000830
:1000D000B7010008B7010008B7010008B701000820
:1000E00011020008B7010008B7010008B7010008B5
:1000F000B7010008B7010008B7010008B701000800
:10010000B7010008B7010008B7010008B7010008EF
:10011000B7010008B7010008B7010008B7010008DF
:10012000B7010008B7010008B7010008B7010008CF
:10013000B7010008B7010008B7010008B7010008BF
:10014000B7010008B7010008B7010008B7010008AF
:10015000B7010008B7010008B7010008B70100089F
:10016000B7010008B7010008B7010008B70100088F
:10017000B7010008B7010008B7010008B70100087F
:10018000B7010008B7010008DFF80CD000F018F83C
:10019000004800472D050008180400200648804745
:1001A00006480047FEE7FEE7FEE7FEE7FEE7FEE75C
:1001B000FEE7FEE7FEE7FEE7B1040008890100085C
:1001C000064C074D06E0E06840F0010394E80700A4
:1001D00098471034AC42F6D3FFF7DAFF5C0500080D
:1001E0007C050008FEE7704710B5012000F02CF8F0
:1001F000002809D00548016881F040010160BDE890
:100200001040012000F01AB810BD00001414024084
:1002100010B54FF40054204600F016F8002809D01D
:100220000548016881F0800101602046BDE810406A
:1002300000F004B810BD0000141402400149086029
:1002400070470000143C014001460020024A126839
:100250000A4200D001207047143C01402DE9F041D2
:10026000002201274FF0030C07FA02F50B682B4020
:10027000AB422CD1066853000CFA03F4A643066087
:100280000E79D0F800809E4046EA080606600E7996
:10029000012E01D0022E12D18668A64386604E79C7
:1002A000D0F808809E4046EA080686604668AE435D
:1002B000466045688E799640B6B235434560C5685C
:1002C000A543C560CC799C40C3681C43C460521CE4
:1002D000102AC9D3BDE8F08141837047018370477C
:1002E000FEE700002DE9FC410121202000F02AF862
:1002F0004024009401208DF8040000218DF80610A0
:100300008DF807008DF805100B4F69463846FFF74A
:10031000A5FF8026009669463846FFF79FFFA50097
:10032000009569463846FFF799FF03481830048066
:1003300006800580BDE8FC8100140240FEE770479E
:1003400070470000054A002903D01168014311607D
:1003500070471168814311607047000030380240D7
:10036000704700000CB500220192009227490868EE
:1003700040F4803008604FF4A043086800F4003077
:1003800000900198401C0190009810B90198984283
:10039000F3D10868800302D50120009000E00092AC
:1003A0000098012831D119484030026842F080524B
:1003B00002601748026842F4404202601348083065
:1003C00002680260026842F400420260026842F47D
:1003D000A0520260021F0F4B13600A6842F0807245
:1003E0000A600A689201FCD50B4A40F2057111605F
:1003F000016821F003010160016841F00201016020
:100400000168C1F381010229FAD10CBD0038024014
:100410000070004019544007003C0240401EB0F1FB
:10042000807F01D3012070474FF0E0214861044AEA
:10043000F0201070002088610720086100207047BC
:1004400023ED00E001B50C484FF47A710068B0FB71
:10045000F1F0FFF7E3FF00204FF0E02103E00A692D
:10046000D203FCD5401C009A9042F8D3086920F0D2
:100470000100086108BD0000000000200348016879
:10048000002902D00168491E016070471400002055
:1004900010B506484FF47A710068B0FBF1F0FFF731
:1004A000BDFF002800D0FEE710BD000000000020C6
:1004B00010B51248016841F47001016010480168EC
:1004C00041F0010101600E4A00210832116002680A
:1004D0000C4B1A400260031D0B4A1A60026822F49A
:1004E0008022026006480C300160FFF73BFF0349A1
:1004F0004FF000608039086010BD000088ED00E01A
:1005000000380240FFFFF6FE10300024FEE702E054
:1005100008C8121F08C1002AFAD17047704700208E
:1005200001E001C1121F002AFBD17047FFF7DAFE7C
:10053000FFF7AEFF084D4FF4FA7440212846FFF74D
:10054000CBFE2046FFF77EFF40212846FFF7C6FE80
:100550002046FFF777FFF0E7001402407C05000813
:1005600000000020180000000E0500089405000897
:1005700018000020000400001E050008007A030A8D
:100580000000000000000000010203040607080943
:040590000000000067
:040000050800018965
:00000001FF
