:020000040800F2
:10000000200400209D0100081B040008BD03000817
:100010001904000811020008F5080008000000009B
:10002000000000000000000000000000FD040008C7
:1000300013020008000000001D04000891070008DA
:10004000B7010008B7010008B7010008B7010008B0
:10005000B7010008B7010008AD020008B7010008A9
:10006000B7010008B7010008B7010008B701000890
:10007000B7010008B7010008B7010008B701000880
:10008000B7010008B7010008B7010008B701000870
:10009000B7010008B7010008B7010008B701000860
:1000A000B7010008B7010008B7010008B701000850
:1000B000B7010008B7010008B7010008B701000840
:1000C000B7010008B7010008B7010008B701000830
:1000D000B7010008B7010008B7010008B701000820
:1000E000D5020008B7010008B7010008B7010008F1
:1000F000B7010008B7010008B7010008B701000800
:10010000B7010008B7010008B7010008B7010008EF
:10011000B7010008B7010008B7010008B7010008DF
:10012000B7010008B7010008B7010008B7010008CF
:10013000B7010008B7010008B7010008B7010008BF
:10014000B7010008B7010008B7010008B7010008AF
:10015000B7010008B7010008B7010008B70100089F
:10016000B7010008B7010008B7010008B70100088F
:10017000B7010008B7010008B7010008B70100087F
:10018000B7010008B7010008DFF80CD000F02EF826
:1001900000480047390B000820040020064880472B
:1001A00006480047FEE7FEE7FEE7FEE7FEE7FEE75C
:1001B000FEE7FEE7FEE7FEE7A50700088901000865
:1001C00030B50B46014600202022012409E021FA27
:1001D00002F59D4205D303FA02F5491B04FA02F524
:1001E0002844151EA2F10102F1DC30BD064C074D7A
:1001F00006E0E06840F0010394E8070098471034F7
:10020000AC42F6D3FFF7C4FFF00B0008100C000857
:10021000FEE7704770B586B00121084600F000F98E
:100220000121102000F00AF900248DF81640012069
:100230008DF8170002258DF815508DF814504002E6
:100240000490184E04A9304600F06AF88DF8145056
:100250006902049104A9304600F062F807220A21DD
:10026000304600F09BF807220921304600F096F84E
:100270004FF4E1300090ADF80440ADF80640ADF821
:100280000840ADF80C400C20ADF80A00064C694659
:10029000204600F0C9FA0121204600F0B1FA06B06C
:1002A00070BD0000000002400010014010B50120A8
:1002B00000F02CF8002809D00548016881F04001C1
:1002C0000160BDE81040012000F01AB810BD000028
:1002D0001414024010B54FF40054204600F016F8F4
:1002E000002809D00548016881F08001016020469E
:1002F000BDE8104000F004B810BD00001414024026
:100300000149086070470000143C0140014600208C
:10031000024A12680A4200D001207047143C014092
:100320002DE9F041002201274FF0030C07FA02F5F6
:100330000B682B40AB422CD1066853000CFA03F437
:10034000A64306600E79D0F800809E4046EA080673
:1003500006600E79012E01D0022E12D18668A643C6
:1003600086604E79D0F808809E4046EA080686608E
:100370004668AE43466045688E799640B6B23543CE
:100380004560C568A543C560CC799C40C3681C43E3
:10039000C460521C102AC9D3BDE8F08110B54B07C8
:1003A000DB0E9A40C90800EB8100016A0F249C40D3
:1003B000A1430162016A1143016210BDFEE7000022
:1003C0002DE9FC410121202000F02AF8402400946E
:1003D00001208DF8040000218DF806108DF807002B
:1003E0008DF805100B4F69463846FFF799FF8026B8
:1003F000009669463846FFF793FFA50000956946C9
:100400003846FFF78DFF03481830048006800580CA
:10041000BDE8FC8100140240FEE770477047000011
:10042000054A002903D01168014311607047116823
:10043000814311607047000030380240054A0029AE
:1004400003D0116801431160704711688143116046
:10045000704700004438024070B5244B196801F021
:100460000C01234C00291ED0224E04291DD008293E
:100470001DD00460196801F0F00109091E4A545C9E
:100480000168E14041601C6804F4E054A40A145D72
:1004900021FA04F484601B6803F460435B0BD25CB4
:1004A000D140C16070BD0460E4E70660E2E70F4A36
:1004B000121F1168C1F38055116801F03F0135B179
:1004C000B6FBF1F11468C4F38814614305E0B4FB92
:1004D000F1F11468C4F3881461431268C2F3014255
:1004E000521C5200B1FBF2F10160C3E70838024030
:1004F0000024F40040787D010000002070470000D7
:100500000CB50022019200922749086840F480301F
:1005100008604FF4A043086800F400300090019890
:10052000401C0190009810B901989842F3D10868D6
:10053000800302D50120009000E00092009801287D
:1005400031D119484030026842F0805202601748A9
:10055000026842F4404202601348083002680260B8
:10056000026842F400420260026842F4A052026053
:10057000021F0F4B13600A6842F080720A600A681B
:100580009201FCD50B4A40F205711160016821F01F
:1005900003010160016841F0020101600168C1F3DB
:1005A00081010229FAD10CBD0038024000700040E0
:1005B00019544007003C024010B514A000F09CF90B
:1005C0004FF4E1311DA000F097F925A000F094F957
:1005D00030A000F091F936A000F08EF93BA000F0B9
:1005E0008BF941A000F088F946A000F085F94CA0F5
:1005F00000F082F951A000F07FF957A000F07CF9DB
:10060000BDE810405BA000F077B900000D0A202083
:1006100020D5E2CAC7D2BBB8F6CDA8B9FDB4AEBFEB
:10062000DACDA8D0C5D6B8C1EEBFD8D6C65247429B
:10063000B2CAB5C6CAB5D1E9200A0000CAB9D3C347
:1006400020205553415254312020B2CECAFDCEAAAB
:10065000A3BA256420382D4E2D31200A0000000059
:10066000BFAAB7A2B0E5BDD3B5BDD6B8C1EEBAF347
:10067000BFD8D6C6524742B2CAB5C6D1D5C9ABA3B8
:10068000ACD6B8C1EEB6D4D3A6C8E7CFC2A3BA0AD7
:1006900000000000202020D6B8C1EE2020202D2D03
:1006A0002D2D2D2D20B2CAB5C6D1D5C9AB200A003B
:1006B000202020202031202020202D2D2D2D2D2DDB
:1006C00020202020BAEC200A00000000202020205A
:1006D0002032202020202D2D2D2D2D2D20202020BA
:1006E000C2CC200A0000000020202020203320203F
:1006F00020202D2D2D2D2D2D20202020C0B6200A8C
:1007000000000000202020202034202020202D2D3B
:100710002D2D2D2D20202020BBC6200A00000000FA
:10072000202020202035202020202D2D2D2D2D2D66
:1007300020202020D7CF200A0000000020202020E9
:100740002036202020202D2D2D2D2D2D2020202045
:10075000C7E0200A000000002020202020372020B1
:1007600020202D2D2D2D2D2D20202020B0D7200A0A
:1007700000000000202020202038202020202D2DC7
:100780002D2D2D2D20202020C3F0200A0000000058
:1007900003480168002902D00168491E01607047C2
:1007A0001000002010B51248016841F4700101608A
:1007B0001048016841F0010101600E4A0021083231
:1007C000116002680C4B1A400260031D0B4A1A604C
:1007D000026822F48022026006480C300160FFF7B4
:1007E0008FFE03494FF000608039086010BD0000A3
:1007F00088ED00E000380240FFFFF6FE10300024D4
:10080000002904D0818941F4005181817047818998
:1008100021F40051818170470246002012880A426B
:1008200000D00120704700007FB504460D46208AA5
:1008300020F44051E88808432082A08941F20C61ED
:100840008843A9882A8911436A8902431143A181F7
:10085000A08A20F44071A8890843A0826846FFF767
:10086000FBFD1E48844202D01D48844201D10398FA
:1008700000E00298A189090408D500EBC00101EB52
:10088000001029684900B0FBF1F007E000EBC0015F
:1008900001EB001029688900B0FBF1F06422B0FB85
:1008A000F2F109010B096FF018056B4300EB8300AF
:1008B000A3891D044FF0320307D503EBC000B0FB42
:1008C000F2F000F00700084306E003EB0010B0FB75
:1008D000F2F000F00F00084320817FBD00100140BE
:1008E000001401408088C0F308007047C1F308017C
:1008F00081807047FEE700000FB4054B10B503A9D7
:10090000044A029800F018F810BC5DF814FB0000CF
:10091000110B00081800002002E008C8121F08C1CF
:10092000002AFAD170477047002001E001C1121F70
:10093000002AFBD1704700002DE9FF4F8BB09A468B
:100940000F460546002606E025280BD052460D9995
:1009500090476D1C761C28780028F5D10FB03046E2
:10096000BDE8F08F0024A0460122604900E0044366
:1009700015F8013F203B02FA03F00842F7D128782E
:100980002E2817D115F8010F44F004042A280ED0A0
:100990006FF02F022878A0F1300109290AD808EB5E
:1009A000880102EB410100EB01086D1CF2E757F8EA
:1009B000048B6D1C287869283ED006DC0028CDD039
:1009C00063280BD0642804D136E0732810D0752832
:1009D0004BD052460D999047761C85E017F8040BD2
:1009E0008DF8000000208DF80100E946012003E0A9
:1009F00057F8049B4FF0FF3061074FF0000401D41B
:100A00000AE0641C44450DDA8442FADB19F804104C
:100A10000029F6D106E0641C8442FCDB19F80410BE
:100A20000029F8D1264404E019F8010B52460D992B
:100A30009047641EF8D257E001CF4FF00A0B002810
:100A400002DA40422D2102E0210504D52B218DF848
:100A50002410012103E0E10705D02021F7E70DF183
:100A6000200908910CE00021F9E701CF4FF00A0BB3
:100A7000F9E75946FFF7A4FB01F1300209F8012D0F
:100A80000028F6D1ADEB090000F1200B600701D47E
:100A90004FF00108D84502DDA8EB0B0000E0002074
:100AA0008046002406E009A85246005D0D99904753
:100AB000641C761C08988442F5DB04E03020524622
:100AC0000D999047761CB8F10001A8F10108F5DCFA
:100AD00005E019F8010B52460D999047761CBBF1C1
:100AE0000001ABF1010BF4DC6D1C34E709280100B7
:100AF00010B5064C20212046FFF78EFE0028F9D0C5
:100B00002046BDE81040FFF7EDBE00000010014098
:100B100070B50446064DE1B22846FFF7E7FE802196
:100B20002846FFF779FE0028F9D0204670BD000066
:100B300000100140FFF7DCBFFFF742FCFFF76AFB44
:100B4000FFF73AFDDFF8908040248025A8F10207E6
:100B5000A6002248FFF7EEFF00F0FF09494620A05B
:100B6000FFF7CAFEA9F13109B9F1080F31D2DFE868
:100B700009F004090E13191F252CA8F800403D8028
:100B80003E80E6E73C80A8F800503E80E1E73C80EC
:100B90003D80A8F80060DCE7A8F80040A8F8005005
:100BA0003E80D6E7A8F800403D80A8F80060D0E776
:100BB0003C80A8F80050A8F80060CAE7A8F80040F8
:100BC000A8F80050A8F80060C3E73C803D803E8054
:100BD000BFE7FFF7F1FCBCE71A1402401400002045
:100BE000BDD3CAD5B5BDD7D6B7FBA3BA25630A0016
:100BF000100C0008000000201C000000180900086C
:100C00002C0C00081C000020040400002809000827
:100C100000000000010203040102030406070809A2
:0C0C2000000000000000000000000000C8
:040000050800018965
:00000001FF
