:020000040800F2
:10000000180400209D010008A5030008A1030008B2
:10001000A3030008E5010008E9070008000000004C
:10002000000000000000000000000000290500089A
:10003000E70100080000000049040008E505000889
:10004000B7010008B7010008B7010008B7010008B0
:10005000B7010008B701000891020008B7010008C5
:10006000B7010008B7010008B7010008B701000890
:10007000B7010008B7010008B7010008B701000880
:10008000B7010008B7010008B7010008B701000870
:10009000B7010008B7010008B7010008B701000860
:1000A000B7010008B7010008B7010008B701000850
:1000B000B7010008B7010008B7010008B701000840
:1000C000B7010008B7010008B7010008B701000830
:1000D000B701000855060008B7010008B70100087D
:1000E000B9020008B7010008B7010008B70100080D
:1000F000B7010008B7010008B7010008B701000800
:10010000B7010008B7010008B7010008B7010008EF
:10011000B7010008B7010008B7010008B7010008DF
:10012000B7010008B7010008B7010008B7010008CF
:10013000B7010008B7010008B7010008B7010008BF
:10014000B7010008B7010008B7010008B7010008AF
:10015000B7010008B7010008B7010008B70100089F
:10016000B7010008B7010008B7010008B70100088F
:10017000B7010008B7010008B7010008B70100087F
:10018000B7010008B7010008DFF80CD000F018F83C
:10019000004800479D0800081804002006488047D2
:1001A00006480047FEE7FEE7FEE7FEE7FEE7FEE75C
:1001B000FEE7FEE7FEE7FEE7F90500088901000813
:1001C000064C074D06E0E06840F0010394E80700A4
:1001D00098471034AC42F6D3FFF7DAFFE008000886
:1001E00000090008FEE7704770B586B00121084697
:1001F00000F02CF90121102000F036F900248DF8D0
:10020000164001208DF8170002258DF815508DF845
:100210001450400204901C4E04A9304600F072F8BD
:100220008DF814506902049104A9304600F06AF870
:1002300007220A21304600F0A3F8072209213046A0
:1002400000F09EF84FF4E1300090ADF80440ADF8B6
:100250000640ADF80840ADF80C400C20ADF80A009F
:100260000A4C6946204600F059FA00F09CF8012239
:1002700040F22551204600F036FA0121204600F0D8
:10028000FFF906B070BD0000000002400010014000
:1002900010B5012000F02CF8002809D005480168AD
:1002A00081F040010160BDE81040012000F01AB863
:1002B00010BD00001414024010B54FF40054204645
:1002C00000F016F8002809D00548016881F0800187
:1002D00001602046BDE8104000F004B810BD0000E9
:1002E000141402400149086070470000143C0140AA
:1002F00001460020024A12680A4200D001207047DD
:10030000143C01402DE9F041002201274FF0030C7D
:1003100007FA02F50B682B40AB422CD1066853005C
:100320000CFA03F4A64306600E79D0F800809E40D4
:1003300046EA080606600E79012E01D0022E12D17F
:100340008668A64386604E79D0F808809E4046EACB
:10035000080686604668AE43466045688E799640DA
:10036000B6B235434560C568A543C560CC799C40AD
:10037000C3681C43C460521C102AC9D3BDE8F08175
:1003800010B54B07DB0E9A40C90800EB8100016AEB
:100390000F249C40A1430162016A1143016210BD18
:1003A000FEE7FEE7704708B54FF4A06000F042F8A2
:1003B00025208DF8000001208DF801008DF8020045
:1003C0008DF80300684600F001F808BD30B50F2332
:1003D000C27801250178002A1FD0154A126802F45C
:1003E000E062C2F5E062C2F30722C2F10404D34026
:1003F0004278A24084781C401443220101F1E0219C
:1004000081F80024007800F01F018D404009800031
:1004100000F1E020C0F8005130BD01F01F00854020
:100420004809800000F1E020C0F8805130BD000094
:100430000CED00E0024908430249086070470000E3
:100440000000FA050CED00E070470000054A0029A5
:1004500003D0116801431160704711688143116036
:100460007047000030380240054A002903D0116867
:1004700001431160704711688143116070470000AB
:100480004438024070B5244B196801F00C01234C2C
:1004900000291ED0224E04291DD008291DD0046039
:1004A000196801F0F00109091E4A545C0168E14035
:1004B00041601C6804F4E054A40A145D21FA04F4B9
:1004C00084601B6803F460435B0BD25CD140C16065
:1004D00070BD0460E4E70660E2E70F4A121F11688E
:1004E000C1F38055116801F03F0135B1B6FBF1F160
:1004F0001468C4F38814614305E0B4FBF1F1146897
:10050000C4F3881461431268C2F30142521C5200C2
:10051000B1FBF2F10160C3E7083802400024F400A7
:1005200040787D0100000020704700000CB50022DB
:10053000019200922749086840F4803008604FF427
:10054000A043086800F4003000900198401C01901E
:10055000009810B901989842F3D10868800302D539
:100560000120009000E000920098012831D1194844
:100570004030026842F0805202601748026842F43C
:10058000404202601348083002680260026842F488
:1005900000420260026842F4A0520260021F0F4B48
:1005A00013600A6842F080720A600A689201FCD502
:1005B0000B4A40F205711160016821F003010160EE
:1005C000016841F0020101600168C1F38101022963
:1005D000FAD10CBD003802400070004019544007A9
:1005E000003C024003480168002902D00168491E0E
:1005F000016070471000002010B51248016841F4F6
:10060000700101601048016841F0010101600E4A6B
:1006100000210832116002680C4B1A400260031D71
:100620000B4A1A60026822F48022026006480C30ED
:100630000160FFF77BFF03494FF0006080390860DD
:1006400010BD000088ED00E000380240FFFFF6FE1C
:100650001030002410B5094C40F22551204600F01E
:1006600022F8002808D0204600F0B6F8C1B2204693
:10067000BDE8104000F0B4B810BD0000001001400B
:10068000002904D0818941F400518181704781891A
:1006900021F40051818170470246002012880A42ED
:1006A00000D00120704770B5002440F66A12C1F3F3
:1006B000421301F01F05012606FA05F2012B0CD0AA
:1006C000022B0DD0838A1340090A8E4000883040E7
:1006D0000BB100B10124204670BD83891340F3E7BC
:1006E000038A1340F0E710B540F66A13C1F34213D2
:1006F00001F01F040121A140012B07D0022B07D0DC
:1007000014303AB102680A43026010BD0C30F8E7B9
:100710001030F6E702688A43026010BD7FB50446D8
:100720000D46208A20F44051E88808432082A089A1
:1007300041F20C618843A9882A8911436A890243DE
:100740001143A181A08A20F44071A8890843A082A6
:100750006846FFF797FE1E48844202D01D48844237
:1007600001D1039800E00298A189090408D500EBA3
:10077000C00101EB001029684900B0FBF1F007E06F
:1007800000EBC00101EB001029688900B0FBF1F01B
:100790006422B0FBF2F109010B096FF018056B43FD
:1007A00000EB8300A3891D044FF0320307D503EB50
:1007B000C000B0FBF2F000F00700084306E003EBD6
:1007C0000010B0FBF2F000F00F00084320817FBD65
:1007D00000100140001401408088C0F308007047F9
:1007E000C1F3080181807047FEE710B5044620463A
:1007F000FFF7F6FF80212046FFF74EFF0028F9D0D3
:1008000010BD70B506460D4600243046295DFFF741
:10081000ECFF641C285D0028F7D140213046FFF72B
:100820003BFF0028F9D070BD014A024900F013B81F
:10083000790800081400002002E008C8121F08C14F
:10084000002AFAD170477047002001E001C1121F51
:10085000002AFBD170472DE9F04116460F460446A9
:10086000002503E03946B047641C6D1C2078002841
:10087000F8D12846BDE8F08170B50446064DE1B2D6
:100880002846FFF7ADFF80212846FFF705FF002827
:10089000F9D0204670BD000000100140FFF7A4FC15
:1008A000064C61212046FFF7A0FF05A12046FFF777
:1008B000A8FF07A0FFF7B8FFFEE700000010014007
:1008C0002068656C6C6F20776F72640A000000000E
:1008D0002068656C6C6F20776F7264210A000000DD
:1008E0000009000800000020180000003808000877
:1008F000180900081800002000040000480800083B
:1009000000000000010203040102030406070809B5
:080910000000000000000000DF
:040000050800018965
:00000001FF
