:020000040800F2
:10000000000400209D010008E30300081503000818
:10001000E1030008DD01000871060008000000008F
:10002000000000000000000000000000550500086E
:10003000DF01000800000000E503000811060008C9
:10004000B3010008B3010008B3010008B3010008C0
:10005000B3010008B3010008B3010008B3010008B0
:10006000B3010008B3010008B3010008B3010008A0
:10007000B3010008B3010008B3010008B301000890
:10008000B3010008B3010008B3010008B301000880
:10009000B3010008B3010008B3010008B301000870
:1000A000B3010008B3010008B3010008B301000860
:1000B000B3010008B3010008B3010008B301000850
:1000C000B3010008B3010008B3010008B301000840
:1000D000B3010008B3010008B3010008B301000830
:1000E000B3010008B3010008B3010008B301000820
:1000F000B3010008B3010008B3010008B301000810
:10010000B3010008B3010008B3010008B3010008FF
:10011000B3010008B3010008B3010008B3010008EF
:10012000B3010008B3010008B3010008B3010008DF
:10013000B3010008B3010008B3010008B3010008CF
:10014000B3010008B3010008B3010008B3010008BF
:10015000B3010008B3010008B3010008B3010008AF
:10016000B3010008B3010008B3010008B30100089F
:10017000B3010008B3010008B3010008B30100088F
:10018000B3010008B3010008DFF80CD000F014F848
:100190000048004791060008000400200548004779
:1001A000FEE7FEE7FEE7FEE7FEE7FEE7FEE7FEE727
:1001B000FEE7FEE789010008064C074D06E0E0680F
:1001C00040F0010394E8070098471034AC42F6D39E
:1001D000FFF7DEFFE8060008F8060008FEE77047B4
:1001E00001B502E00098401E009000980028F9D167
:1001F00008BD2DE9F041002201274FF0030C07FA5A
:1002000002F50B682B40AB422CD1066853000CFA68
:1002100003F4A64306600E79D0F800809E4046EABB
:10022000080606600E79012E01D0022E12D18668D2
:10023000A64386604E79D0F808809E4046EA0806BC
:1002400086604668AE43466045688E799640B6B291
:1002500035434560C568A543C560CC799C40C368FB
:100260001C43C460521C102AC9D3BDE8F0814183ED
:1002700070470183704700002DE9FC4105460E469A
:1002800017461C460020019000F0BCF8012000F049
:1002900011F91D48006800F0020001900198022841
:1002A0002FD119494031086840F080500860174943
:1002B000086840F440400860002000F0F1F84FF476
:1002C000A05000F011F94FF4805000F017F93B46B0
:1002D000324629460020009400F020F9012000F069
:1002E00017F9392000F0B8F80028FAD0084940F290
:1002F00005700860022000F023F900F0C9F8082812
:10030000FBD1BDE8FC8100000038024000700040D5
:10031000003C0240FEE700002DE9FC4101212020C5
:1003200000F062F84024009401208DF804000021C0
:100330008DF806108DF807008DF805100B4F6946F3
:100340003846FFF756FF8026009669463846FFF785
:1003500050FFA500009569463846FFF74AFF03485D
:100360001830048006800580BDE8FC81001402403E
:100370001CB50121084600F037F84FF4807000905A
:1003800002208DF8040000208DF8060001208DF871
:10039000070003208DF8050069460248FFF729FF92
:1003A0001CBD0000000002401CB50121042000F02B
:1003B0001BF84FF40070009002208DF8040000201C
:1003C0008DF8060001208DF8070003208DF8050048
:1003D00069460248FFF70DFF1CBD000000080240FF
:1003E000FEE7704770470000054A002903D01168F6
:1003F000014311607047116881431160704700002C
:10040000303802401048016841F0010101600E4A95
:1004100000210832116002680C4B1A400260031D73
:100420000B4A1A60084B0B4A84331A60084A103A88
:100430001B1D1A60026822F48022026002480C3000
:100440000160181D0160704700380240FFFFF6EAA6
:1004500010300024003000200246002051090129FC
:100460000BD002290DD00949096802F01F020123AF
:1004700093400B4200D00120704704497439096849
:10048000F3E70249091F0968EFE7000074380240EA
:100490000248006800F00C00704700000838024075
:1004A000034A116821F0F001014311607047000018
:1004B00008380240014908607047000000004742C8
:1004C000034B1A6822F0EC6208431043186070472F
:1004D00008380240034B1A6822F078420843104360
:1004E0001860704708380240034A116821F4E0514F
:1004F000014311607047000008380240034A116848
:1005000021F4604141EAC0001060704708380240A1
:1005100001490866704700000000474210B5029C80
:1005200041EA82114FF0FF3202EB530241EA0241ED
:10053000014341EA04600149086010BD04380240EB
:10054000034A116821F00301014311607047000064
:1005500008380240704700000CB50022019200925A
:100560002749086840F4803008604FF4A0430868C9
:1005700000F4003000900198401C0190009810B9E0
:1005800001989842F3D10868800302D501200090B9
:1005900000E000920098012831D1194840300268EB
:1005A00042F0805202601748026842F44042026002
:1005B0001348083002680260026842F40042026098
:1005C000026842F4A0520260021F0F4B13600A68D7
:1005D00042F080720A600A689201FCD50B4A40F230
:1005E00005711160016821F003010160016841F0AB
:1005F000020101600168C1F381010229FAD10CBD39
:10060000003802400070004019544007003C02408E
:100610007047000010B51248016841F47001016094
:100620001048016841F0010101600E4A00210832C2
:10063000116002680C4B1A400260031D0B4A1A60DD
:10064000026822F48022026006480C300160FFF745
:1006500083FF03494FF000608039086010BD00003F
:1006600088ED00E000380240FFFFF6FE1030002465
:10067000FEE702E008C8121F08C1002AFAD170473D
:100680007047002001E001C1121F002AFBD1704712
:10069000072302224FF4A8711020FFF7EDFDFFF7AA
:1006A0003BFEFFF765FEFFF77FFE00214FF4800061
:1006B000FFF706FF00210846FFF70CFF084D094C25
:1006C00040212846FFF7D3FD2046FFF789FD402152
:1006D0002846FFF7CEFD2046FFF782FDF0E7000039
:1006E00000140240FFFF0F00F80600080000002081
:0806F00000040000820600086E
:040000050800018965
:00000001FF
